{
  "_format": "hh-sol-artifact-1",
  "contractName": "SaluData",
  "sourceName": "contracts/SaluData.sol",
  "abi": [
    {
      "inputs": [],
      "stateMutability": "nonpayable",
      "type": "constructor"
    },
    {
      "anonymous": false,
      "inputs": [
        {
          "indexed": true,
          "internalType": "uint256",
          "name": "consentTokenId",
          "type": "uint256"
        }
      ],
      "name": "AccessRevoked",
      "type": "event"
    },
    {
      "anonymous": false,
      "inputs": [
        {
          "indexed": true,
          "internalType": "address",
          "name": "owner",
          "type": "address"
        },
        {
          "indexed": true,
          "internalType": "address",
          "name": "approved",
          "type": "address"
        },
        {
          "indexed": true,
          "internalType": "uint256",
          "name": "tokenId",
          "type": "uint256"
        }
      ],
      "name": "Approval",
      "type": "event"
    },
    {
      "anonymous": false,
      "inputs": [
        {
          "indexed": true,
          "internalType": "address",
          "name": "owner",
          "type": "address"
        },
        {
          "indexed": true,
          "internalType": "address",
          "name": "operator",
          "type": "address"
        },
        {
          "indexed": false,
          "internalType": "bool",
          "name": "approved",
          "type": "bool"
        }
      ],
      "name": "ApprovalForAll",
      "type": "event"
    },
    {
      "anonymous": false,
      "inputs": [
        {
          "indexed": true,
          "internalType": "bytes32",
          "name": "recordId",
          "type": "bytes32"
        },
        {
          "indexed": true,
          "internalType": "address",
          "name": "doctor",
          "type": "address"
        },
        {
          "indexed": true,
          "internalType": "uint256",
          "name": "consentTokenId",
          "type": "uint256"
        }
      ],
      "name": "ConsentGranted",
      "type": "event"
    },
    {
      "anonymous": false,
      "inputs": [
        {
          "indexed": true,
          "internalType": "address",
          "name": "user",
          "type": "address"
        },
        {
          "indexed": false,
          "internalType": "string",
          "name": "publicKey",
          "type": "string"
        }
      ],
      "name": "PublicKeyRegistered",
      "type": "event"
    },
    {
      "anonymous": false,
      "inputs": [
        {
          "indexed": true,
          "internalType": "bytes32",
          "name": "recordId",
          "type": "bytes32"
        },
        {
          "indexed": true,
          "internalType": "address",
          "name": "owner",
          "type": "address"
        }
      ],
      "name": "RecordRegistered",
      "type": "event"
    },
    {
      "anonymous": false,
      "inputs": [
        {
          "indexed": true,
          "internalType": "address",
          "name": "from",
          "type": "address"
        },
        {
          "indexed": true,
          "internalType": "address",
          "name": "to",
          "type": "address"
        },
        {
          "indexed": true,
          "internalType": "uint256",
          "name": "tokenId",
          "type": "uint256"
        }
      ],
      "name": "Transfer",
      "type": "event"
    },
    {
      "inputs": [
        {
          "internalType": "address",
          "name": "to",
          "type": "address"
        },
        {
          "internalType": "uint256",
          "name": "tokenId",
          "type": "uint256"
        }
      ],
      "name": "approve",
      "outputs": [],
      "stateMutability": "nonpayable",
      "type": "function"
    },
    {
      "inputs": [
        {
          "internalType": "address",
          "name": "owner",
          "type": "address"
        }
      ],
      "name": "balanceOf",
      "outputs": [
        {
          "internalType": "uint256",
          "name": "",
          "type": "uint256"
        }
      ],
      "stateMutability": "view",
      "type": "function"
    },
    {
      "inputs": [
        {
          "internalType": "uint256",
          "name": "",
          "type": "uint256"
        }
      ],
      "name": "consentGrants",
      "outputs": [
        {
          "internalType": "bytes32",
          "name": "recordId",
          "type": "bytes32"
        },
        {
          "internalType": "address",
          "name": "patient",
          "type": "address"
        },
        {
          "internalType": "address",
          "name": "doctor",
          "type": "address"
        },
        {
          "internalType": "enum SaluData.AccessStatus",
          "name": "status",
          "type": "uint8"
        },
        {
          "internalType": "string",
          "name": "encryptedDEKForDoctor",
          "type": "string"
        },
        {
          "internalType": "uint256",
          "name": "expiresAt",
          "type": "uint256"
        }
      ],
      "stateMutability": "view",
      "type": "function"
    },
    {
      "inputs": [
        {
          "internalType": "uint256",
          "name": "consentTokenId",
          "type": "uint256"
        }
      ],
      "name": "getAccessKey",
      "outputs": [
        {
          "internalType": "string",
          "name": "",
          "type": "string"
        }
      ],
      "stateMutability": "view",
      "type": "function"
    },
    {
      "inputs": [
        {
          "internalType": "uint256",
          "name": "tokenId",
          "type": "uint256"
        }
      ],
      "name": "getApproved",
      "outputs": [
        {
          "internalType": "address",
          "name": "",
          "type": "address"
        }
      ],
      "stateMutability": "view",
      "type": "function"
    },
    {
      "inputs": [
        {
          "internalType": "bytes32",
          "name": "recordId",
          "type": "bytes32"
        },
        {
          "internalType": "address",
          "name": "doctor",
          "type": "address"
        },
        {
          "internalType": "string",
          "name": "encryptedDEKForDoctor",
          "type": "string"
        },
        {
          "internalType": "uint256",
          "name": "durationSeconds",
          "type": "uint256"
        }
      ],
      "name": "grantConsent",
      "outputs": [],
      "stateMutability": "nonpayable",
      "type": "function"
    },
    {
      "inputs": [
        {
          "internalType": "address",
          "name": "owner",
          "type": "address"
        },
        {
          "internalType": "address",
          "name": "operator",
          "type": "address"
        }
      ],
      "name": "isApprovedForAll",
      "outputs": [
        {
          "internalType": "bool",
          "name": "",
          "type": "bool"
        }
      ],
      "stateMutability": "view",
      "type": "function"
    },
    {
      "inputs": [],
      "name": "name",
      "outputs": [
        {
          "internalType": "string",
          "name": "",
          "type": "string"
        }
      ],
      "stateMutability": "view",
      "type": "function"
    },
    {
      "inputs": [
        {
          "internalType": "uint256",
          "name": "tokenId",
          "type": "uint256"
        }
      ],
      "name": "ownerOf",
      "outputs": [
        {
          "internalType": "address",
          "name": "",
          "type": "address"
        }
      ],
      "stateMutability": "view",
      "type": "function"
    },
    {
      "inputs": [
        {
          "internalType": "address",
          "name": "",
          "type": "address"
        }
      ],
      "name": "publicEncryptionKeys",
      "outputs": [
        {
          "internalType": "string",
          "name": "",
          "type": "string"
        }
      ],
      "stateMutability": "view",
      "type": "function"
    },
    {
      "inputs": [
        {
          "internalType": "bytes32",
          "name": "",
          "type": "bytes32"
        }
      ],
      "name": "records",
      "outputs": [
        {
          "internalType": "bytes32",
          "name": "recordId",
          "type": "bytes32"
        },
        {
          "internalType": "address",
          "name": "owner",
          "type": "address"
        },
        {
          "internalType": "string",
          "name": "cid",
          "type": "string"
        },
        {
          "internalType": "string",
          "name": "metaHash",
          "type": "string"
        }
      ],
      "stateMutability": "view",
      "type": "function"
    },
    {
      "inputs": [
        {
          "internalType": "string",
          "name": "publicKey",
          "type": "string"
        }
      ],
      "name": "registerPublicKey",
      "outputs": [],
      "stateMutability": "nonpayable",
      "type": "function"
    },
    {
      "inputs": [
        {
          "internalType": "bytes32",
          "name": "recordId",
          "type": "bytes32"
        },
        {
          "internalType": "string",
          "name": "cid",
          "type": "string"
        },
        {
          "internalType": "string",
          "name": "metaHash",
          "type": "string"
        }
      ],
      "name": "registerRecord",
      "outputs": [],
      "stateMutability": "nonpayable",
      "type": "function"
    },
    {
      "inputs": [
        {
          "internalType": "uint256",
          "name": "consentTokenId",
          "type": "uint256"
        }
      ],
      "name": "revokeConsent",
      "outputs": [],
      "stateMutability": "nonpayable",
      "type": "function"
    },
    {
      "inputs": [
        {
          "internalType": "address",
          "name": "from",
          "type": "address"
        },
        {
          "internalType": "address",
          "name": "to",
          "type": "address"
        },
        {
          "internalType": "uint256",
          "name": "tokenId",
          "type": "uint256"
        }
      ],
      "name": "safeTransferFrom",
      "outputs": [],
      "stateMutability": "nonpayable",
      "type": "function"
    },
    {
      "inputs": [
        {
          "internalType": "address",
          "name": "from",
          "type": "address"
        },
        {
          "internalType": "address",
          "name": "to",
          "type": "address"
        },
        {
          "internalType": "uint256",
          "name": "tokenId",
          "type": "uint256"
        },
        {
          "internalType": "bytes",
          "name": "data",
          "type": "bytes"
        }
      ],
      "name": "safeTransferFrom",
      "outputs": [],
      "stateMutability": "nonpayable",
      "type": "function"
    },
    {
      "inputs": [
        {
          "internalType": "address",
          "name": "operator",
          "type": "address"
        },
        {
          "internalType": "bool",
          "name": "approved",
          "type": "bool"
        }
      ],
      "name": "setApprovalForAll",
      "outputs": [],
      "stateMutability": "nonpayable",
      "type": "function"
    },
    {
      "inputs": [
        {
          "internalType": "bytes4",
          "name": "interfaceId",
          "type": "bytes4"
        }
      ],
      "name": "supportsInterface",
      "outputs": [
        {
          "internalType": "bool",
          "name": "",
          "type": "bool"
        }
      ],
      "stateMutability": "view",
      "type": "function"
    },
    {
      "inputs": [],
      "name": "symbol",
      "outputs": [
        {
          "internalType": "string",
          "name": "",
          "type": "string"
        }
      ],
      "stateMutability": "view",
      "type": "function"
    },
    {
      "inputs": [
        {
          "internalType": "uint256",
          "name": "tokenId",
          "type": "uint256"
        }
      ],
      "name": "tokenURI",
      "outputs": [
        {
          "internalType": "string",
          "name": "",
          "type": "string"
        }
      ],
      "stateMutability": "view",
      "type": "function"
    },
    {
      "inputs": [
        {
          "internalType": "address",
          "name": "from",
          "type": "address"
        },
        {
          "internalType": "address",
          "name": "to",
          "type": "address"
        },
        {
          "internalType": "uint256",
          "name": "tokenId",
          "type": "uint256"
        }
      ],
      "name": "transferFrom",
      "outputs": [],
      "stateMutability": "nonpayable",
      "type": "function"
    }
  ],
  "bytecode": "0x60806040523480156200001157600080fd5b506040518060400160405280601881526020017f53616c754461746120436f6e73656e74205265636569707400000000000000008152506040518060400160405280600481526020017f534443520000000000000000000000000000000000000000000000000000000081525081600090816200008f919062000324565b508060019081620000a1919062000324565b5050506200040b565b600081519050919050565b7f4e487b7100000000000000000000000000000000000000000000000000000000600052604160045260246000fd5b7f4e487b7100000000000000000000000000000000000000000000000000000000600052602260045260246000fd5b600060028204905060018216806200012c57607f821691505b602082108103620001425762000141620000e4565b5b50919050565b60008190508160005260206000209050919050565b60006020601f8301049050919050565b600082821b905092915050565b600060088302620001ac7fffffffffffffffffffffffffffffffffffffffffffffffffffffffffffffffff826200016d565b620001b886836200016d565b95508019841693508086168417925050509392505050565b6000819050919050565b6000819050919050565b600062000205620001ff620001f984620001d0565b620001da565b620001d0565b9050919050565b6000819050919050565b6200022183620001e4565b6200023962000230826200020c565b8484546200017a565b825550505050565b600090565b6200025062000241565b6200025d81848462000216565b505050565b5b8181101562000285576200027960008262000246565b60018101905062000263565b5050565b601f821115620002d4576200029e8162000148565b620002a9846200015d565b81016020851015620002b9578190505b620002d1620002c8856200015d565b83018262000262565b50505b505050565b600082821c905092915050565b6000620002f960001984600802620002d9565b1980831691505092915050565b6000620003148383620002e6565b9150826002028217905092915050565b6200032f82620000aa565b67ffffffffffffffff8111156200034b576200034a620000b5565b5b62000357825462000113565b6200036482828562000289565b600060209050601f8311600181146200039c576000841562000387578287015190505b62000393858262000306565b86555062000403565b601f198416620003ac8662000148565b60005b82811015620003d657848901518255600182019150602085019450602081019050620003af565b86831015620003f65784890151620003f2601f891682620002e6565b8355505b6001600288020188555050505b505050505050565b613f4d806200041b6000396000f3fe608060405234801561001057600080fd5b50600436106101375760003560e01c80636352211e116100b8578063aad07f9b1161007c578063aad07f9b14610373578063b88d4fde146103a8578063bd44f6eb146103c4578063c87b56dd146103e0578063e985e9c514610410578063f590b65f1461044057610137565b80636352211e146102bd57806370a08231146102ed57806395d89b411461031d578063a22cb4651461033b578063a934b8ff1461035757610137565b806316a0042c116100ff57806316a0042c1461020957806323b872dd1461022557806342842e0e14610241578063518f04711461025d57806362a60c961461028d57610137565b806301e647251461013c57806301ffc9a71461016f57806306fdde031461019f578063081812fc146101bd578063095ea7b3146101ed575b600080fd5b610156600480360381019061015191906126da565b61045c565b60405161016694939291906127e7565b60405180910390f35b61018960048036038101906101849190612892565b6105bc565b60405161019691906128da565b60405180910390f35b6101a761069e565b6040516101b491906128f5565b60405180910390f35b6101d760048036038101906101d2919061294d565b610730565b6040516101e4919061297a565b60405180910390f35b610207600480360381019061020291906129c1565b610776565b005b610223600480360381019061021e919061294d565b61088d565b005b61023f600480360381019061023a9190612a01565b610994565b005b61025b60048036038101906102569190612a01565b6109f4565b005b6102776004803603810190610272919061294d565b610a14565b60405161028491906128f5565b60405180910390f35b6102a760048036038101906102a29190612a54565b610d6b565b6040516102b491906128f5565b60405180910390f35b6102d760048036038101906102d2919061294d565b610e0b565b6040516102e4919061297a565b60405180910390f35b61030760048036038101906103029190612a54565b610e91565b6040516103149190612a90565b60405180910390f35b610325610f48565b60405161033291906128f5565b60405180910390f35b61035560048036038101906103509190612ad7565b610fda565b005b610371600480360381019061036c9190612b7c565b610ff0565b005b61038d6004803603810190610388919061294d565b61134a565b60405161039f96959493929190612c7b565b60405180910390f35b6103c260048036038101906103bd9190612e13565b61145b565b005b6103de60048036038101906103d99190612e96565b6114bd565b005b6103fa60048036038101906103f5919061294d565b6116ff565b60405161040791906128f5565b60405180910390f35b61042a60048036038101906104259190612f2b565b611767565b60405161043791906128da565b60405180910390f35b61045a60048036038101906104559190612f6b565b6117fb565b005b60076020528060005260406000206000915090508060000154908060010160009054906101000a900473ffffffffffffffffffffffffffffffffffffffff16908060020180546104ab90612fe7565b80601f01602080910402602001604051908101604052809291908181526020018280546104d790612fe7565b80156105245780601f106104f957610100808354040283529160200191610524565b820191906000526020600020905b81548152906001019060200180831161050757829003601f168201915b50505050509080600301805461053990612fe7565b80601f016020809104026020016040519081016040528092919081815260200182805461056590612fe7565b80156105b25780601f10610587576101008083540402835291602001916105b2565b820191906000526020600020905b81548152906001019060200180831161059557829003601f168201915b5050505050905084565b60007f80ac58cd000000000000000000000000000000000000000000000000000000007bffffffffffffffffffffffffffffffffffffffffffffffffffffffff1916827bffffffffffffffffffffffffffffffffffffffffffffffffffffffff1916148061068757507f5b5e139f000000000000000000000000000000000000000000000000000000007bffffffffffffffffffffffffffffffffffffffffffffffffffffffff1916827bffffffffffffffffffffffffffffffffffffffffffffffffffffffff1916145b8061069757506106968261189e565b5b9050919050565b6060600080546106ad90612fe7565b80601f01602080910402602001604051908101604052809291908181526020018280546106d990612fe7565b80156107265780601f106106fb57610100808354040283529160200191610726565b820191906000526020600020905b81548152906001019060200180831161070957829003601f168201915b5050505050905090565b600061073b82611908565b6004600083815260200190815260200160002060009054906101000a900473ffffffffffffffffffffffffffffffffffffffff169050919050565b600061078182610e0b565b90508073ffffffffffffffffffffffffffffffffffffffff168373ffffffffffffffffffffffffffffffffffffffff16036107f1576040517f08c379a00000000000000000000000000000000000000000000000000000000081526004016107e89061308a565b60405180910390fd5b8073ffffffffffffffffffffffffffffffffffffffff16610810611953565b73ffffffffffffffffffffffffffffffffffffffff16148061083f575061083e81610839611953565b611767565b5b61087e576040517f08c379a00000000000000000000000000000000000000000000000000000000081526004016108759061311c565b60405180910390fd5b610888838361195b565b505050565b60006008600083815260200190815260200160002090503373ffffffffffffffffffffffffffffffffffffffff168160010160009054906101000a900473ffffffffffffffffffffffffffffffffffffffff1673ffffffffffffffffffffffffffffffffffffffff1614610936576040517f08c379a000000000000000000000000000000000000000000000000000000000815260040161092d906131ae565b60405180910390fd5b60028160020160146101000a81548160ff0219169083600281111561095e5761095d612c04565b5b0217905550817f179a6da3bc3c96ac2f7d761f20b721c6ea358c7d75c3f8cc79b5476100a1733460405160405180910390a25050565b6109a561099f611953565b82611a14565b6109e4576040517f08c379a00000000000000000000000000000000000000000000000000000000081526004016109db90613240565b60405180910390fd5b6109ef838383611aa9565b505050565b610a0f8383836040518060200160405280600081525061145b565b505050565b60603373ffffffffffffffffffffffffffffffffffffffff16610a3683611da2565b73ffffffffffffffffffffffffffffffffffffffff1614610a8c576040517f08c379a0000000000000000000000000000000000000000000000000000000008152600401610a83906132d2565b60405180910390fd5b6000600860008481526020019081526020016000206040518060c0016040529081600082015481526020016001820160009054906101000a900473ffffffffffffffffffffffffffffffffffffffff1673ffffffffffffffffffffffffffffffffffffffff1673ffffffffffffffffffffffffffffffffffffffff1681526020016002820160009054906101000a900473ffffffffffffffffffffffffffffffffffffffff1673ffffffffffffffffffffffffffffffffffffffff1673ffffffffffffffffffffffffffffffffffffffff1681526020016002820160149054906101000a900460ff166002811115610b8757610b86612c04565b5b6002811115610b9957610b98612c04565b5b8152602001600382018054610bad90612fe7565b80601f0160208091040260200160405190810160405280929190818152602001828054610bd990612fe7565b8015610c265780601f10610bfb57610100808354040283529160200191610c26565b820191906000526020600020905b815481529060010190602001808311610c0957829003601f168201915b5050505050815260200160048201548152505090503373ffffffffffffffffffffffffffffffffffffffff16816040015173ffffffffffffffffffffffffffffffffffffffff1614610cad576040517f08c379a0000000000000000000000000000000000000000000000000000000008152600401610ca49061333e565b60405180910390fd5b60016002811115610cc157610cc0612c04565b5b81606001516002811115610cd857610cd7612c04565b5b14610d18576040517f08c379a0000000000000000000000000000000000000000000000000000000008152600401610d0f906133aa565b60405180910390fd5b8060a001514210610d5e576040517f08c379a0000000000000000000000000000000000000000000000000000000008152600401610d5590613416565b60405180910390fd5b8060800151915050919050565b60096020528060005260406000206000915090508054610d8a90612fe7565b80601f0160208091040260200160405190810160405280929190818152602001828054610db690612fe7565b8015610e035780601f10610dd857610100808354040283529160200191610e03565b820191906000526020600020905b815481529060010190602001808311610de657829003601f168201915b505050505081565b600080610e1783611da2565b9050600073ffffffffffffffffffffffffffffffffffffffff168173ffffffffffffffffffffffffffffffffffffffff1603610e88576040517f08c379a0000000000000000000000000000000000000000000000000000000008152600401610e7f90613482565b60405180910390fd5b80915050919050565b60008073ffffffffffffffffffffffffffffffffffffffff168273ffffffffffffffffffffffffffffffffffffffff1603610f01576040517f08c379a0000000000000000000000000000000000000000000000000000000008152600401610ef890613514565b60405180910390fd5b600360008373ffffffffffffffffffffffffffffffffffffffff1673ffffffffffffffffffffffffffffffffffffffff168152602001908152602001600020549050919050565b606060018054610f5790612fe7565b80601f0160208091040260200160405190810160405280929190818152602001828054610f8390612fe7565b8015610fd05780601f10610fa557610100808354040283529160200191610fd0565b820191906000526020600020905b815481529060010190602001808311610fb357829003601f168201915b5050505050905090565b610fec610fe5611953565b8383611ddf565b5050565b3373ffffffffffffffffffffffffffffffffffffffff166007600087815260200190815260200160002060010160009054906101000a900473ffffffffffffffffffffffffffffffffffffffff1673ffffffffffffffffffffffffffffffffffffffff1614611094576040517f08c379a000000000000000000000000000000000000000000000000000000000815260040161108b90613580565b60405180910390fd5b6000600960008673ffffffffffffffffffffffffffffffffffffffff1673ffffffffffffffffffffffffffffffffffffffff16815260200190815260200160002080546110e090612fe7565b905011611122576040517f08c379a000000000000000000000000000000000000000000000000000000000815260040161111990613612565b60405180910390fd5b61112c6006611f4b565b60006111386006611f61565b90506111448582611f6f565b6040518060c001604052808781526020013373ffffffffffffffffffffffffffffffffffffffff1681526020018673ffffffffffffffffffffffffffffffffffffffff168152602001600160028111156111a1576111a0612c04565b5b815260200185858080601f016020809104026020016040519081016040528093929190818152602001838380828437600081840152601f19601f82011690508083019250505050505050815260200183426111fc9190613661565b815250600860008381526020019081526020016000206000820151816000015560208201518160010160006101000a81548173ffffffffffffffffffffffffffffffffffffffff021916908373ffffffffffffffffffffffffffffffffffffffff16021790555060408201518160020160006101000a81548173ffffffffffffffffffffffffffffffffffffffff021916908373ffffffffffffffffffffffffffffffffffffffff16021790555060608201518160020160146101000a81548160ff021916908360028111156112d5576112d4612c04565b5b021790555060808201518160030190816112ef9190613841565b5060a08201518160040155905050808573ffffffffffffffffffffffffffffffffffffffff16877fceef20abee32b434077c664bf2db0317c6f0861f3b307befcb26bca7fc3a8a4060405160405180910390a4505050505050565b60086020528060005260406000206000915090508060000154908060010160009054906101000a900473ffffffffffffffffffffffffffffffffffffffff16908060020160009054906101000a900473ffffffffffffffffffffffffffffffffffffffff16908060020160149054906101000a900460ff16908060030180546113d290612fe7565b80601f01602080910402602001604051908101604052809291908181526020018280546113fe90612fe7565b801561144b5780601f106114205761010080835404028352916020019161144b565b820191906000526020600020905b81548152906001019060200180831161142e57829003601f168201915b5050505050908060040154905086565b61146c611466611953565b83611a14565b6114ab576040517f08c379a00000000000000000000000000000000000000000000000000000000081526004016114a290613240565b60405180910390fd5b6114b784848484611f8d565b50505050565b600073ffffffffffffffffffffffffffffffffffffffff166007600087815260200190815260200160002060010160009054906101000a900473ffffffffffffffffffffffffffffffffffffffff1673ffffffffffffffffffffffffffffffffffffffff1614611562576040517f08c379a00000000000000000000000000000000000000000000000000000000081526004016115599061395f565b60405180910390fd5b60405180608001604052808681526020013373ffffffffffffffffffffffffffffffffffffffff16815260200185858080601f016020809104026020016040519081016040528093929190818152602001838380828437600081840152601f19601f82011690508083019250505050505050815260200183838080601f016020809104026020016040519081016040528093929190818152602001838380828437600081840152601f19601f82011690508083019250505050505050815250600760008781526020019081526020016000206000820151816000015560208201518160010160006101000a81548173ffffffffffffffffffffffffffffffffffffffff021916908373ffffffffffffffffffffffffffffffffffffffff160217905550604082015181600201908161169a9190613841565b5060608201518160030190816116b09190613841565b509050503373ffffffffffffffffffffffffffffffffffffffff16857f47ed4e6e4e882906e50075951d8d547692c15e15cc110db812a0de24268be46c60405160405180910390a35050505050565b606061170a82611908565b6000611714611fe9565b90506000815111611734576040518060200160405280600081525061175f565b8061173e84612000565b60405160200161174f9291906139bb565b6040516020818303038152906040525b915050919050565b6000600560008473ffffffffffffffffffffffffffffffffffffffff1673ffffffffffffffffffffffffffffffffffffffff16815260200190815260200160002060008373ffffffffffffffffffffffffffffffffffffffff1673ffffffffffffffffffffffffffffffffffffffff16815260200190815260200160002060009054906101000a900460ff16905092915050565b8181600960003373ffffffffffffffffffffffffffffffffffffffff1673ffffffffffffffffffffffffffffffffffffffff16815260200190815260200160002091826118499291906139ea565b503373ffffffffffffffffffffffffffffffffffffffff167fe6ba8490d82d58e83a08a0bfc5814e885bad83c28c703c75bcbf5ed6054300f68383604051611892929190613ae7565b60405180910390a25050565b60007f01ffc9a7000000000000000000000000000000000000000000000000000000007bffffffffffffffffffffffffffffffffffffffffffffffffffffffff1916827bffffffffffffffffffffffffffffffffffffffffffffffffffffffff1916149050919050565b611911816120ce565b611950576040517f08c379a000000000000000000000000000000000000000000000000000000000815260040161194790613482565b60405180910390fd5b50565b600033905090565b816004600083815260200190815260200160002060006101000a81548173ffffffffffffffffffffffffffffffffffffffff021916908373ffffffffffffffffffffffffffffffffffffffff160217905550808273ffffffffffffffffffffffffffffffffffffffff166119ce83610e0b565b73ffffffffffffffffffffffffffffffffffffffff167f8c5be1e5ebec7d5bd14f71427d1e84f3dd0314c0f7b2291e5b200ac8c7c3b92560405160405180910390a45050565b600080611a2083610e0b565b90508073ffffffffffffffffffffffffffffffffffffffff168473ffffffffffffffffffffffffffffffffffffffff161480611a625750611a618185611767565b5b80611aa057508373ffffffffffffffffffffffffffffffffffffffff16611a8884610730565b73ffffffffffffffffffffffffffffffffffffffff16145b91505092915050565b8273ffffffffffffffffffffffffffffffffffffffff16611ac982610e0b565b73ffffffffffffffffffffffffffffffffffffffff1614611b1f576040517f08c379a0000000000000000000000000000000000000000000000000000000008152600401611b1690613b7d565b60405180910390fd5b600073ffffffffffffffffffffffffffffffffffffffff168273ffffffffffffffffffffffffffffffffffffffff1603611b8e576040517f08c379a0000000000000000000000000000000000000000000000000000000008152600401611b8590613c0f565b60405180910390fd5b611b9b838383600161210f565b8273ffffffffffffffffffffffffffffffffffffffff16611bbb82610e0b565b73ffffffffffffffffffffffffffffffffffffffff1614611c11576040517f08c379a0000000000000000000000000000000000000000000000000000000008152600401611c0890613b7d565b60405180910390fd5b6004600082815260200190815260200160002060006101000a81549073ffffffffffffffffffffffffffffffffffffffff02191690556001600360008573ffffffffffffffffffffffffffffffffffffffff1673ffffffffffffffffffffffffffffffffffffffff168152602001908152602001600020600082825403925050819055506001600360008473ffffffffffffffffffffffffffffffffffffffff1673ffffffffffffffffffffffffffffffffffffffff16815260200190815260200160002060008282540192505081905550816002600083815260200190815260200160002060006101000a81548173ffffffffffffffffffffffffffffffffffffffff021916908373ffffffffffffffffffffffffffffffffffffffff160217905550808273ffffffffffffffffffffffffffffffffffffffff168473ffffffffffffffffffffffffffffffffffffffff167fddf252ad1be2c89b69c2b068fc378daa952ba7f163c4a11628f55a4df523b3ef60405160405180910390a4611d9d8383836001612115565b505050565b60006002600083815260200190815260200160002060009054906101000a900473ffffffffffffffffffffffffffffffffffffffff169050919050565b8173ffffffffffffffffffffffffffffffffffffffff168373ffffffffffffffffffffffffffffffffffffffff1603611e4d576040517f08c379a0000000000000000000000000000000000000000000000000000000008152600401611e4490613c7b565b60405180910390fd5b80600560008573ffffffffffffffffffffffffffffffffffffffff1673ffffffffffffffffffffffffffffffffffffffff16815260200190815260200160002060008473ffffffffffffffffffffffffffffffffffffffff1673ffffffffffffffffffffffffffffffffffffffff16815260200190815260200160002060006101000a81548160ff0219169083151502179055508173ffffffffffffffffffffffffffffffffffffffff168373ffffffffffffffffffffffffffffffffffffffff167f17307eab39ab6107e8899845ad3d59bd9653f200f220920489ca2b5937696c3183604051611f3e91906128da565b60405180910390a3505050565b6001816000016000828254019250508190555050565b600081600001549050919050565b611f8982826040518060200160405280600081525061211b565b5050565b611f98848484611aa9565b611fa484848484612176565b611fe3576040517f08c379a0000000000000000000000000000000000000000000000000000000008152600401611fda90613d0d565b60405180910390fd5b50505050565b606060405180602001604052806000815250905090565b60606000600161200f846122fd565b01905060008167ffffffffffffffff81111561202e5761202d612ce8565b5b6040519080825280601f01601f1916602001820160405280156120605781602001600182028036833780820191505090505b509050600082602001820190505b6001156120c3578080600190039150507f3031323334353637383961626364656600000000000000000000000000000000600a86061a8153600a85816120b7576120b6613d2d565b5b0494506000850361206e575b819350505050919050565b60008073ffffffffffffffffffffffffffffffffffffffff166120f083611da2565b73ffffffffffffffffffffffffffffffffffffffff1614159050919050565b50505050565b50505050565b6121258383612450565b6121326000848484612176565b612171576040517f08c379a000000000000000000000000000000000000000000000000000000000815260040161216890613d0d565b60405180910390fd5b505050565b60006121978473ffffffffffffffffffffffffffffffffffffffff1661266d565b156122f0578373ffffffffffffffffffffffffffffffffffffffff1663150b7a026121c0611953565b8786866040518563ffffffff1660e01b81526004016121e29493929190613db1565b6020604051808303816000875af192505050801561221e57506040513d601f19601f8201168201806040525081019061221b9190613e12565b60015b6122a0573d806000811461224e576040519150601f19603f3d011682016040523d82523d6000602084013e612253565b606091505b506000815103612298576040517f08c379a000000000000000000000000000000000000000000000000000000000815260040161228f90613d0d565b60405180910390fd5b805181602001fd5b63150b7a0260e01b7bffffffffffffffffffffffffffffffffffffffffffffffffffffffff1916817bffffffffffffffffffffffffffffffffffffffffffffffffffffffff1916149150506122f5565b600190505b949350505050565b600080600090507a184f03e93ff9f4daa797ed6e38ed64bf6a1f010000000000000000831061235b577a184f03e93ff9f4daa797ed6e38ed64bf6a1f010000000000000000838161235157612350613d2d565b5b0492506040810190505b6d04ee2d6d415b85acef81000000008310612398576d04ee2d6d415b85acef8100000000838161238e5761238d613d2d565b5b0492506020810190505b662386f26fc1000083106123c757662386f26fc1000083816123bd576123bc613d2d565b5b0492506010810190505b6305f5e10083106123f0576305f5e10083816123e6576123e5613d2d565b5b0492506008810190505b612710831061241557612710838161240b5761240a613d2d565b5b0492506004810190505b60648310612438576064838161242e5761242d613d2d565b5b0492506002810190505b600a8310612447576001810190505b80915050919050565b600073ffffffffffffffffffffffffffffffffffffffff168273ffffffffffffffffffffffffffffffffffffffff16036124bf576040517f08c379a00000000000000000000000000000000000000000000000000000000081526004016124b690613e8b565b60405180910390fd5b6124c8816120ce565b15612508576040517f08c379a00000000000000000000000000000000000000000000000000000000081526004016124ff90613ef7565b60405180910390fd5b61251660008383600161210f565b61251f816120ce565b1561255f576040517f08c379a000000000000000000000000000000000000000000000000000000000815260040161255690613ef7565b60405180910390fd5b6001600360008473ffffffffffffffffffffffffffffffffffffffff1673ffffffffffffffffffffffffffffffffffffffff16815260200190815260200160002060008282540192505081905550816002600083815260200190815260200160002060006101000a81548173ffffffffffffffffffffffffffffffffffffffff021916908373ffffffffffffffffffffffffffffffffffffffff160217905550808273ffffffffffffffffffffffffffffffffffffffff16600073ffffffffffffffffffffffffffffffffffffffff167fddf252ad1be2c89b69c2b068fc378daa952ba7f163c4a11628f55a4df523b3ef60405160405180910390a4612669600083836001612115565b5050565b6000808273ffffffffffffffffffffffffffffffffffffffff163b119050919050565b6000604051905090565b600080fd5b600080fd5b6000819050919050565b6126b7816126a4565b81146126c257600080fd5b50565b6000813590506126d4816126ae565b92915050565b6000602082840312156126f0576126ef61269a565b5b60006126fe848285016126c5565b91505092915050565b612710816126a4565b82525050565b600073ffffffffffffffffffffffffffffffffffffffff82169050919050565b600061274182612716565b9050919050565b61275181612736565b82525050565b600081519050919050565b600082825260208201905092915050565b60005b83811015612791578082015181840152602081019050612776565b60008484015250505050565b6000601f19601f8301169050919050565b60006127b982612757565b6127c38185612762565b93506127d3818560208601612773565b6127dc8161279d565b840191505092915050565b60006080820190506127fc6000830187612707565b6128096020830186612748565b818103604083015261281b81856127ae565b9050818103606083015261282f81846127ae565b905095945050505050565b60007fffffffff0000000000000000000000000000000000000000000000000000000082169050919050565b61286f8161283a565b811461287a57600080fd5b50565b60008135905061288c81612866565b92915050565b6000602082840312156128a8576128a761269a565b5b60006128b68482850161287d565b91505092915050565b60008115159050919050565b6128d4816128bf565b82525050565b60006020820190506128ef60008301846128cb565b92915050565b6000602082019050818103600083015261290f81846127ae565b905092915050565b6000819050919050565b61292a81612917565b811461293557600080fd5b50565b60008135905061294781612921565b92915050565b6000602082840312156129635761296261269a565b5b600061297184828501612938565b91505092915050565b600060208201905061298f6000830184612748565b92915050565b61299e81612736565b81146129a957600080fd5b50565b6000813590506129bb81612995565b92915050565b600080604083850312156129d8576129d761269a565b5b60006129e6858286016129ac565b92505060206129f785828601612938565b9150509250929050565b600080600060608486031215612a1a57612a1961269a565b5b6000612a28868287016129ac565b9350506020612a39868287016129ac565b9250506040612a4a86828701612938565b9150509250925092565b600060208284031215612a6a57612a6961269a565b5b6000612a78848285016129ac565b91505092915050565b612a8a81612917565b82525050565b6000602082019050612aa56000830184612a81565b92915050565b612ab4816128bf565b8114612abf57600080fd5b50565b600081359050612ad181612aab565b92915050565b60008060408385031215612aee57612aed61269a565b5b6000612afc858286016129ac565b9250506020612b0d85828601612ac2565b9150509250929050565b600080fd5b600080fd5b600080fd5b60008083601f840112612b3c57612b3b612b17565b5b8235905067ffffffffffffffff811115612b5957612b58612b1c565b5b602083019150836001820283011115612b7557612b74612b21565b5b9250929050565b600080600080600060808688031215612b9857612b9761269a565b5b6000612ba6888289016126c5565b9550506020612bb7888289016129ac565b945050604086013567ffffffffffffffff811115612bd857612bd761269f565b5b612be488828901612b26565b93509350506060612bf788828901612938565b9150509295509295909350565b7f4e487b7100000000000000000000000000000000000000000000000000000000600052602160045260246000fd5b60038110612c4457612c43612c04565b5b50565b6000819050612c5582612c33565b919050565b6000612c6582612c47565b9050919050565b612c7581612c5a565b82525050565b600060c082019050612c906000830189612707565b612c9d6020830188612748565b612caa6040830187612748565b612cb76060830186612c6c565b8181036080830152612cc981856127ae565b9050612cd860a0830184612a81565b979650505050505050565b600080fd5b7f4e487b7100000000000000000000000000000000000000000000000000000000600052604160045260246000fd5b612d208261279d565b810181811067ffffffffffffffff82111715612d3f57612d3e612ce8565b5b80604052505050565b6000612d52612690565b9050612d5e8282612d17565b919050565b600067ffffffffffffffff821115612d7e57612d7d612ce8565b5b612d878261279d565b9050602081019050919050565b82818337600083830152505050565b6000612db6612db184612d63565b612d48565b905082815260208101848484011115612dd257612dd1612ce3565b5b612ddd848285612d94565b509392505050565b600082601f830112612dfa57612df9612b17565b5b8135612e0a848260208601612da3565b91505092915050565b60008060008060808587031215612e2d57612e2c61269a565b5b6000612e3b878288016129ac565b9450506020612e4c878288016129ac565b9350506040612e5d87828801612938565b925050606085013567ffffffffffffffff811115612e7e57612e7d61269f565b5b612e8a87828801612de5565b91505092959194509250565b600080600080600060608688031215612eb257612eb161269a565b5b6000612ec0888289016126c5565b955050602086013567ffffffffffffffff811115612ee157612ee061269f565b5b612eed88828901612b26565b9450945050604086013567ffffffffffffffff811115612f1057612f0f61269f565b5b612f1c88828901612b26565b92509250509295509295909350565b60008060408385031215612f4257612f4161269a565b5b6000612f50858286016129ac565b9250506020612f61858286016129ac565b9150509250929050565b60008060208385031215612f8257612f8161269a565b5b600083013567ffffffffffffffff811115612fa057612f9f61269f565b5b612fac85828601612b26565b92509250509250929050565b7f4e487b7100000000000000000000000000000000000000000000000000000000600052602260045260246000fd5b60006002820490506001821680612fff57607f821691505b60208210810361301257613011612fb8565b5b50919050565b7f4552433732313a20617070726f76616c20746f2063757272656e74206f776e6560008201527f7200000000000000000000000000000000000000000000000000000000000000602082015250565b6000613074602183612762565b915061307f82613018565b604082019050919050565b600060208201905081810360008301526130a381613067565b9050919050565b7f4552433732313a20617070726f76652063616c6c6572206973206e6f7420746f60008201527f6b656e206f776e6572206f7220617070726f76656420666f7220616c6c000000602082015250565b6000613106603d83612762565b9150613111826130aa565b604082019050919050565b60006020820190508181036000830152613135816130f9565b9050919050565b7f4f6e6c79207468652070617469656e742063616e207265766f6b6520636f6e7360008201527f656e740000000000000000000000000000000000000000000000000000000000602082015250565b6000613198602383612762565b91506131a38261313c565b604082019050919050565b600060208201905081810360008301526131c78161318b565b9050919050565b7f4552433732313a2063616c6c6572206973206e6f7420746f6b656e206f776e6560008201527f72206f7220617070726f76656400000000000000000000000000000000000000602082015250565b600061322a602d83612762565b9150613235826131ce565b604082019050919050565b600060208201905081810360008301526132598161321d565b9050919050565b7f43616c6c657220646f6573206e6f74206f776e207468697320636f6e73656e7460008201527f20746f6b656e0000000000000000000000000000000000000000000000000000602082015250565b60006132bc602683612762565b91506132c782613260565b604082019050919050565b600060208201905081810360008301526132eb816132af565b9050919050565b7f4e6f7420617574686f72697a6564000000000000000000000000000000000000600082015250565b6000613328600e83612762565b9150613333826132f2565b602082019050919050565b600060208201905081810360008301526133578161331b565b9050919050565b7f436f6e73656e74206973206e6f74206163746976650000000000000000000000600082015250565b6000613394601583612762565b915061339f8261335e565b602082019050919050565b600060208201905081810360008301526133c381613387565b9050919050565b7f436f6e73656e7420686173206578706972656400000000000000000000000000600082015250565b6000613400601383612762565b915061340b826133ca565b602082019050919050565b6000602082019050818103600083015261342f816133f3565b9050919050565b7f4552433732313a20696e76616c696420746f6b656e2049440000000000000000600082015250565b600061346c601883612762565b915061347782613436565b602082019050919050565b6000602082019050818103600083015261349b8161345f565b9050919050565b7f4552433732313a2061646472657373207a65726f206973206e6f74206120766160008201527f6c6964206f776e65720000000000000000000000000000000000000000000000602082015250565b60006134fe602983612762565b9150613509826134a2565b604082019050919050565b6000602082019050818103600083015261352d816134f1565b9050919050565b7f4f6e6c79206f776e65722063616e206772616e7420636f6e73656e7400000000600082015250565b600061356a601c83612762565b915061357582613534565b602082019050919050565b600060208201905081810360008301526135998161355d565b9050919050565b7f446f63746f7220686173206e6f207075626c6963206b6579207265676973746560008201527f7265640000000000000000000000000000000000000000000000000000000000602082015250565b60006135fc602383612762565b9150613607826135a0565b604082019050919050565b6000602082019050818103600083015261362b816135ef565b9050919050565b7f4e487b7100000000000000000000000000000000000000000000000000000000600052601160045260246000fd5b600061366c82612917565b915061367783612917565b925082820190508082111561368f5761368e613632565b5b92915050565b60008190508160005260206000209050919050565b60006020601f8301049050919050565b600082821b905092915050565b6000600883026136f77fffffffffffffffffffffffffffffffffffffffffffffffffffffffffffffffff826136ba565b61370186836136ba565b95508019841693508086168417925050509392505050565b6000819050919050565b600061373e61373961373484612917565b613719565b612917565b9050919050565b6000819050919050565b61375883613723565b61376c61376482613745565b8484546136c7565b825550505050565b600090565b613781613774565b61378c81848461374f565b505050565b5b818110156137b0576137a5600082613779565b600181019050613792565b5050565b601f8211156137f5576137c681613695565b6137cf846136aa565b810160208510156137de578190505b6137f26137ea856136aa565b830182613791565b50505b505050565b600082821c905092915050565b6000613818600019846008026137fa565b1980831691505092915050565b60006138318383613807565b9150826002028217905092915050565b61384a82612757565b67ffffffffffffffff81111561386357613862612ce8565b5b61386d8254612fe7565b6138788282856137b4565b600060209050601f8311600181146138ab5760008415613899578287015190505b6138a38582613825565b86555061390b565b601f1984166138b986613695565b60005b828110156138e1578489015182556001820191506020850194506020810190506138bc565b868310156138fe57848901516138fa601f891682613807565b8355505b6001600288020188555050505b505050505050565b7f5265636f726420494420616c7265616479206578697374730000000000000000600082015250565b6000613949601883612762565b915061395482613913565b602082019050919050565b600060208201905081810360008301526139788161393c565b9050919050565b600081905092915050565b600061399582612757565b61399f818561397f565b93506139af818560208601612773565b80840191505092915050565b60006139c7828561398a565b91506139d3828461398a565b91508190509392505050565b600082905092915050565b6139f483836139df565b67ffffffffffffffff811115613a0d57613a0c612ce8565b5b613a178254612fe7565b613a228282856137b4565b6000601f831160018114613a515760008415613a3f578287013590505b613a498582613825565b865550613ab1565b601f198416613a5f86613695565b60005b82811015613a8757848901358255600182019150602085019450602081019050613a62565b86831015613aa45784890135613aa0601f891682613807565b8355505b6001600288020188555050505b50505050505050565b6000613ac68385612762565b9350613ad3838584612d94565b613adc8361279d565b840190509392505050565b60006020820190508181036000830152613b02818486613aba565b90509392505050565b7f4552433732313a207472616e736665722066726f6d20696e636f72726563742060008201527f6f776e6572000000000000000000000000000000000000000000000000000000602082015250565b6000613b67602583612762565b9150613b7282613b0b565b604082019050919050565b60006020820190508181036000830152613b9681613b5a565b9050919050565b7f4552433732313a207472616e7366657220746f20746865207a65726f2061646460008201527f7265737300000000000000000000000000000000000000000000000000000000602082015250565b6000613bf9602483612762565b9150613c0482613b9d565b604082019050919050565b60006020820190508181036000830152613c2881613bec565b9050919050565b7f4552433732313a20617070726f766520746f2063616c6c657200000000000000600082015250565b6000613c65601983612762565b9150613c7082613c2f565b602082019050919050565b60006020820190508181036000830152613c9481613c58565b9050919050565b7f4552433732313a207472616e7366657220746f206e6f6e20455243373231526560008201527f63656976657220696d706c656d656e7465720000000000000000000000000000602082015250565b6000613cf7603283612762565b9150613d0282613c9b565b604082019050919050565b60006020820190508181036000830152613d2681613cea565b9050919050565b7f4e487b7100000000000000000000000000000000000000000000000000000000600052601260045260246000fd5b600081519050919050565b600082825260208201905092915050565b6000613d8382613d5c565b613d8d8185613d67565b9350613d9d818560208601612773565b613da68161279d565b840191505092915050565b6000608082019050613dc66000830187612748565b613dd36020830186612748565b613de06040830185612a81565b8181036060830152613df28184613d78565b905095945050505050565b600081519050613e0c81612866565b92915050565b600060208284031215613e2857613e2761269a565b5b6000613e3684828501613dfd565b91505092915050565b7f4552433732313a206d696e7420746f20746865207a65726f2061646472657373600082015250565b6000613e75602083612762565b9150613e8082613e3f565b602082019050919050565b60006020820190508181036000830152613ea481613e68565b9050919050565b7f4552433732313a20746f6b656e20616c7265616479206d696e74656400000000600082015250565b6000613ee1601c83612762565b9150613eec82613eab565b602082019050919050565b60006020820190508181036000830152613f1081613ed4565b905091905056fea2646970667358221220fb924ac2b6ba7f90dce918852d7874a9bff874404c7d473457b73fcb376e992764736f6c63430008140033",
  "linkReferences": {},
  "deployedLinkReferences": {}
}